:020000040800F2
:1000000048050020A5010008FF1F00080D1E00087C
:10001000FD1F0008A9040008CD2A00080000000008
:10002000000000000000000000000000AD210008FA
:10003000AB0400080000000001200008AF21000808
:10004000BF010008BF010008BF010008BF01000890
:10005000BF010008BF010008BF010008BF01000880
:10006000BF010008BF010008BF010008BF01000870
:10007000BF010008BF010008BF010008BF01000860
:10008000BF010008BF010008BF010008BF01000850
:10009000BF010008BF010008BF010008BF01000840
:1000A000BF010008BF010008BF010008712200085D
:1000B000BF0100080000000000000000BF010008B0
:1000C000BF0100080000000000000000BF010008A0
:1000D00000000000BF010008BF0100080000000090
:1000E000BF010008BF010008000000000000000080
:1000F0000000000000000000000000000000000000
:10010000000000000000000000000000BF01000827
:100110000000000000000000BF010008BF0100084F
:10012000BF010008BF010008BF010008BF010008AF
:10013000BF010008000000000000000000000000F7
:10014000BF010008BF010008BF010008BF0100088F
:10015000BF010008BF010008BF010008BF0100087F
:10016000BF010008BF010008BF0100080000000037
:10017000BF010008BF0100080000000000000000EF
:10018000BF010008BF010008BF010008DFF810D060
:1001900000F078F9004800477D2E0008AFF300809A
:1001A000480500200648804706480047FEE7FEE76E
:1001B000FEE7FEE7FEE7FEE7FEE7FEE7FEE7FEE717
:1001C0002D2200088D0100082DE9F05F0546002072
:1001D00092469B4688460646814640241BE02846B8
:1001E00041464746224600F0DFF853465A46C01AB9
:1001F000914110D311461846224600F0C6F82D1A38
:1002000067EB01084F4622460120002100F0BDF8AF
:1002100017EB00094E41201EA4F10104DFDC484623
:1002200031462A46434600F000B830BCBDE8C09FC6
:10023000D2B201E000F8012B491EFBD27047002228
:10024000F6E710B513460A4604461946FFF7F0FFD5
:10025000204610BD2DE9FE4F81EA030404F000445E
:1002600021F0004100944FF0000B23F0004350EACE
:1002700001045ED052EA03045BD0C3F30A54C1F315
:100280000A552C44A4F2F3340194A0FB0254C1F3A8
:10029000130141F48011C3F3130343F4801301FBF2
:1002A000024400FB034E840A970A44EA815447EA59
:1002B0008357A4FB076802958D0A05FB07854FEA63
:1002C000932C04FB0C542705029D4FEA065847EA7D
:1002D0001637B5EB08056EEB070C870E920E47EA52
:1002E000811742EA8312A7FB0201B6EB0B0164EB14
:1002F00000042B0D43EA0C335E1844EB1C50DA4625
:100300005146E7FB0201C5F313044FEA0B3343EAFE
:1003100014534FEA0432019C43EA0603A4F10C048F
:100320000294009CCDE900B400F05DF803B000F049
:1003300003B800200146F9E730BCBDE8C08F0EB518
:1003400040F2334102910021CDE900110A460B46EB
:1003500000F049F803B000BDC1F30A5210B5C1F373
:10036000130140F2FF3341F480119A4201DA002078
:1003700010BD40F233439A42A2F2334203DC5242B0
:1003800000F012F810BD904010BD202A04DB203A86
:1003900000FA02F1002070479140C2F1200320FAD8
:1003A00003F3194390407047202A04DB203A21FAD6
:1003B00002F00021704721FA02F3D040C2F120027E
:1003C000914008431946704710B5141E73F100049C
:1003D00008DA401C41F1000192185B411A4301D137
:1003E00020F0010010BD2DE9F04D92469B4611B161
:1003F000B1FA81F202E0B0FA80F220329046FFF7C3
:10040000C4FF04460F4640EA0A0041EA0B01534686
:100410005A46084313D0114653EA010019D0C8F1D7
:1004200040025046FFF7C0FF05460E46504659466B
:100430004246FFF7AAFF084305D0012004E020460A
:100440003946BDE8F08D0020054346EAE0762C43AE
:1004500037430A986305E40AA0EB08000022FD0A6E
:1004600044EA47540A3002D500200146E9E7010575
:1004700010196941DDE9084500196941BDE8F04DF1
:10048000A2E70000064C074D06E0E06840F00103DB
:1004900094E8070098471034AC42F6D3FFF77AFE91
:1004A000BC310008DC310008FEE7704770B5044637
:1004B00000F0E4F80546601C02D0044800780444CB
:1004C00000F0DCF8401BA042FAD370BD1C000020F5
:1004D0002DE9FC4FDFF880A1002301250AF1040B70
:1004E00003244FF00F0C0BF1040EAEE005FA03F6F7
:1004F00032406FD04F68012F05D0022F03D0112F4B
:1005000001D0122F17D1D0F808905F0004FA07F835
:1005100029EA08090097D1F80C8008FA07F848EA98
:100520000908C0F808804768B7430E79C6F300167B
:100530009E403E434660C6684FEA430804FA08F707
:10054000BE4301978F6807FA08F73743C7604E68C4
:10055000022E01D0122E13D1DE0800EB8606009683
:10056000366A5F07FF0E0CFA07F926EA0906D1F88A
:10057000109009FA07F949EA0609009EC6F820908A
:100580000768019EB7430E7906F0030606FA08F6DF
:100590003E4306604E68F60056D5304E376E47F043
:1005A00001073766366E23F0030706F00106009652
:1005B0002B4E3E44B146B6689F074FEA17780CFAB7
:1005C00008F7BE43B0F1904F05D0264FB84204D192
:1005D000012708E038E0002705E0234FB84201D1A9
:1005E000022700E0072707FA08F73743C9F8087021
:1005F000DAF800605746D1F8048096435FEAC838BD
:1006000000D516433E60DBF800605F46D1F80480F9
:1006100096435FEA883800D516433E60DEF80060F6
:100620007746D1F8048096435FEAC82800D5164380
:100630003E60094F0C373E68D1F8048096435FEA6C
:10064000882800D516433E605B1C0A6832FA03F620
:100650007FF44CAF00F00AB80004014000100240E3
:100660000000014000040048000800481CBCBDE830
:10067000E08F0AB1816170478162704701488068EC
:10068000704700001C000020024881680278114475
:10069000816070471C00002010B50024032000F08A
:1006A00071F8002000F008F808B1012401E000F022
:1006B00025F8204610BD000070B50E4E05460024FA
:1006C000307898B14FF47A71B1FBF0F00A490968BB
:1006D000B1FBF0F000F0A6FD40B9102D06D20022CB
:1006E0002946501E00F02EF8756000E001242046D7
:1006F00070BD00001C00002028000020094808B53B
:10070000016E41F001010166016E01F001010091ED
:10071000816D41F080518165806D00F080500090C6
:1007200008BD000000100240002809DB00F01F0295
:10073000012191404009800000F1E020C0F8001143
:1007400070470000F0B40E4B1B680C46C3F3022345
:10075000C3F10705042D00D90425191D072901D26D
:10076000002300E0DB1E012606FA05F1491E2140A8
:1007700099409E40761E16403143F0BC02F0A7B966
:100780000CED00E0064900F0070208684FF6FF0391
:10079000184040EA0220034A1043086070470000F6
:1007A0000CED00E00000FA051649B0F5007F08687E
:1007B000C0F3412009D0022805D0086820F4C060A9
:1007C00040F480600860002070470128FBD0086872
:1007D00020F4C06040F4007008600B4832220068CA
:1007E00050430A4AB0FBF2F0401C00E0401E4A6948
:1007F000520501D50028F9D148694005E3D5032009
:1008000070470000007000402800002040420F00A8
:100810000248006800F4C0607047000000700040AB
:100820002DE9F84F0446002700889C4D3E46000500
:1008300015D5E06B60B1B0F5000F04D0B0F5400FF6
:100840002BD001270AE0E86840F48030E86024E01B
:100850000021201D01F0D6FB07001ED03E46206877
:10086000800338D5A86D4FF00008C00009D4A86DEA
:1008700040F08050A865A86D4FF0010800F080504E
:100880000090DFF81CA2DAF8001041F48071CAF879
:100890000010FFF7F3FE814610E0D5F88800E16B09
:1008A00020F440000843C5F88800D8E7FFF7E6FECB
:1008B000A0EB0900022801D9032704E0DAF80000C0
:1008C000C005F3D5EFB33E46B8F1000F03D0A86DD5
:1008D00020F08050A8652078C00707D0D5F88800A0
:1008E000216A20F003000843C5F8880020788007BB
:1008F00007D5D5F88800616A20F00C000843C5F8D8
:1009000088002078800607D5D5F88800A16A20F4F1
:1009100040600843C5F888002088800507D5D5F8D1
:100920008800616B20F440200843C5F888002088C7
:10093000400509D5D5F88800A16B20F44010084384
:1009400000E02EE0C5F888002078400607D5D5F8ED
:100950008800E16A20F440500843C5F888002088E8
:10096000C00507D5D5F88800216B20F44030084336
:10097000C5F8880020884FF0006780044FF0806839
:100980004ED5D5F88800216C20F040600843C5F8AA
:100990008800206CB8423BD1E86840F48010E860E1
:1009A0003EE0D5F8900010F4407014D0216D8142E3
:1009B00011D0D5F89000D5F8901020F4407041F493
:1009C0008031C5F89010D5F8901021F48031C5F829
:1009D0009010C5F89000C00711D0FFF74FFE0746F2
:1009E00041F2883907E000BFFFF748FEC11B4945C7
:1009F00001D9032668E7D5F890008007F4D5D5F82B
:100A00009000216D20F440700843C5F890005BE72A
:100A1000404505D10121201D01F0F4FA00B1064640
:100A20002068400317D5D5F88800616C20F040603D
:100A30000843C5F88800606CB84204D1E86840F407
:100A40008010E86007E0404505D10121201D01F03C
:100A5000D9FA00B106462088400411D5D5F888009F
:100A6000A16C20F040500843C5F88800A06CB0F19C
:100A7000805F05D10221201D01F0C4FA00B10646B5
:100A80002088000406D555F8880FE16C20F08040DE
:100A900008432860304600F005B80000001002400E
:100AA0000070004018BCBDE8E08F00002DE9F04761
:100AB0000F46050058D0404E306800F00700B8429D
:100AC00009D2306820F0070038433060306800F009
:100AD0000700B84248D12878384CC0072CD0686845
:100AE000032811D0022812D0216898B149050029A5
:100AF0003ADAA16821F003010143A160FFF7BEFDCE
:100B0000804641F2883910E021688901EFE72168C9
:100B10008903ECE78907EAE7FFF7B0FDA0EB0801DE
:100B2000494502D90320BDE8F087A068696800F054
:100B30000C00B0EB810FEFD12878800705D5A068B5
:100B4000A96820F0F0000843A060306800F00700BA
:100B5000B8420BD9306820F0070038433060306865
:100B600000F00700B84201D00120DCE728784007F8
:100B700005D5A068E96820F4E0600843A060287803
:100B8000000706D5A068296920F4605040EAC1003A
:100B9000A06000F03FF8A168094AC1F30311515C5D
:100BA00001F01F01C8400749086007480068BDE818
:100BB000F047FFF781BD0000002002400010024016
:100BC0007431000828000020200000200548064954
:100BD00000688968054AC1F30221515C01F01F01D8
:100BE000C84070472800002000100240B4310008BF
:100BF0000548064900688968054AC1F3C221515C6D
:100C000001F01F01C840704728000020001002407A
:100C1000B431000870B52549002318468A68CC68AD
:100C200012F00C0204F00306214C4FEA640509D0CF
:100C30000C2A05D0042A32D0082A00D1284670BDDB
:100C4000012E10D10B681B0704D4D1F89430C3F3E4
:100C5000032302E00B68C3F30313164E56F8233048
:100C6000DAB10C2AEBD1C86800F00300022818D0D2
:100C7000032818D01846CA68CB68C2F30212C3F31F
:100C800006234343521CB3FBF2F2C868C0F3416031
:100C9000401C4000B2FBF0F070BD184670BD20460D
:100CA00070BD2046E7E72846E5E700000010024057
:100CB0000024F400843100082DE9F84304006FD0CB
:100CC000FE4DA86800F00C06E86800F003072078E5
:100CD000C00664D576B10C2E01D1012F0AD0A069CF
:100CE000002828687AD040F001002860FFF7C6FC91
:100CF00080465DE02868800702D5A0690028DED024
:100D0000216A2868000703D5286800F0F00004E095
:100D1000D5F89400F02202EA1010814216D9084654
:100D200001F006FA00283BD1286840F0080028604E
:100D30002868216A20F0F000084328606868E169AB
:100D400020F47F4040EA0120686016E0286840F007
:100D5000080028602868216A20F0F0000843286015
:100D60006868E16920F47F4040EA0120686026B9A4
:100D7000206A01F0DDF90028D5D1FFF74BFFA96803
:100D8000CF4AC1F30311515C01F01F01C840CD49A6
:100D90000860CD480068FFF78FFC00287ED12EE068
:100DA000CAE000BFFFF76AFCA0EB0800022876D873
:100DB00028688007F6D5286840F008002860286871
:100DC000216A20F0F000084328606868E16920F497
:100DD0007F4040EA0120686011E0FFE720F0010059
:100DE0002860FFF74BFC804606E000BFFFF746FC9B
:100DF000A0EB08000228DAD828688007F6D420780B
:100E0000C00740D0082E18D00C2E01D1032F14D0CB
:100E10006068B0F5803F17D0B0F5A02F286817D0D4
:100E200020F480302860286820F4802028606068E2
:100E3000E0B1FFF723FC804614E02868800322D548
:100E40006068002878D01EE0286840F48030EDE724
:100E500040F480202860F7E7FFF710FCA0EB0800C3
:100E60006428A4D828688003F6D50CE0FFF706FCB8
:100E7000804605E0FFF702FCA0EB0800642896D846
:100E800028688003F6D4207880073BD5042E11D043
:100E90000C2E01D1022F0DD0E06801E0B6E1FFE099
:100EA000002828681ED040F480702860FFF7E6FB19
:100EB00007460CE0286840050CD5E0680028C1D042
:100EC00008E000BFFFF7DAFBC01B022893D82868B0
:100ED0004005F7D56868217C20F0FE4040EA0160BB
:100EE00068600FE020F480702860FFF7C7FB0746BA
:100EF00005E000BFFFF7C2FBC01B0228B1D828687D
:100F00004005F7D42078000729D560690028D5F876
:100F1000940012D040F00100C5F89400FFF7AEFB3A
:100F2000074604E0FFF7AAFBC01B022899D8D5F8B2
:100F300094008007F6D512E02BE120F00100C5F8FF
:100F40009400FFF79BFB074605E000BFFFF796FB09
:100F5000C01B022885D8D5F894008007F6D42078E5
:100F6000400766D5A86D0027C00008D4A86D40F0E2
:100F70008050A865A86D012700F08050009053486C
:100F80000168C90512D40168814641F4807101608D
:100F9000FFF774FB804605E0FFF770FBA0EB08004D
:100FA00002287DD8D9F80000C005F5D5A068012831
:100FB00016D00528D5F8900017D020F00100C5F80C
:100FC0009000D5F8900020F0040000BFC5F8900014
:100FD000A06841F28839C0B1FFF750FB80460FE0AE
:100FE000D5F8900040F00100F0E740F00400C5F8AB
:100FF0009000F5E7FFF742FBA0EB080149454FD809
:10100000D5F890008007F5D50EE0FFF737FB804656
:1010100006E000BFFFF732FBA0EB080149453FD8CF
:10102000D5F890008007F5D41FB1A86D20F080504E
:10103000A8652078800628D5606A0028D5F8980031
:1010400012D040F00100C5F89800FFF717FB0746E3
:1010500005E000BFFFF712FBC01B022820D8D5F81F
:1010600098008007F6D510E020F00100C5F8980040
:10107000FFF704FB074604E0FFF700FBC01B022854
:101080000ED8D5F898008007F6D4A06AA8B1022837
:1010900024D00C2E7DD0286820F08070286000E0DD
:1010A000B3E02868000103D4E86820F00300E8609A
:1010B000E86807490840E8600CE09FE00010024043
:1010C000743100082800002020000020007000403B
:1010D000FFFFEEFEFFF7D2FA044699E0E868E26A05
:1010E00000F00301914226D1216B00F0700209014A
:1010F000103991421FD1626B00F4FE41B1EB022F17
:1011000019D194F8382000F07841B1EBC26F12D1B8
:10111000A18F00F4C00249084905A1F500119142D0
:1011200009D194F8401000F0C06049084906A1F1C7
:10113000007181424BD00C2E6FD0286840016CD4D6
:10114000286820F080702860FFF798FA064604E0CF
:10115000FFF794FA801B022857D828688001F7D43B
:10116000F4E90B016FF00F0202EB01110843218A31
:101170005204490802EB4151A26841EA02210843A6
:10118000217D4FF07E42490802EB41610843217BFB
:1011900000E042E040EAC160E968214A11400843AA
:1011A000E860286840F080702860E86840F080704F
:1011B000E860FFF763FA044605E000BFFFF75EFA58
:1011C000001B022821D828688001F7D523E0286871
:1011D000800120D4286840F080702860E86840F0E2
:1011E0008070E860FFF74AFA044604E0FFF746FA29
:1011F000001B022809D828688001F7D50BE000BF42
:10120000FFF73CFA001B022802D90320BDE8F8834F
:1012100028688001F4D40020F8E70120F6E70000F8
:101220008C809D0110B5401EB0F1807F01D301205C
:1012300010BD4FF0E02460610F21601701F047FC02
:101240000020A06107202061002010BD704770477A
:1012500070470000F0B590F83C20012A29D0012405
:1012600080F83C40022280F83D2003685A689D685F
:10127000114EB34203D122F470074A683A4322F078
:1012800070070A683A435A600268B24205D0B2F168
:10129000804F02D0094B9A4204D1896825F080031F
:1012A0001943916080F83D40002180F83C100846C9
:1012B000F0BD0220F0BD0000002C014000400140C4
:1012C00010B5040003D094F83D0010B107E00120F0
:1012D00010BD002084F83C00204600F023F80220D6
:1012E00084F83D00211D206801F020F8012084F8D9
:1012F000480084F83E0084F83F0084F8400084F8F9
:10130000410084F8420084F8430084F8440084F8E3
:10131000450084F8460084F8470084F83D0000202A
:1013200010BD000010B586B0044614216846FEF7D3
:1013300086FF1C4A21681C48914227D1016E41F466
:1013400000610166016E01F400610591C16C41F01C
:101350000101C164C06C694600F001000590901560
:101360000090022001900020029003900120049040
:101370004FF09040FFF7ACF8002211461B20FFF71A
:10138000E1F91B20FFF7D0F906B010BDB1F1804F95
:10139000FAD1816D41F001018165806D00F001009D
:1013A0000590F1E7002C01400010024090F83D103C
:1013B000012901D001207047022180F83D1000680A
:1013C0000B49884205D0B0F1804F02D009498842CC
:1013D00007D18168084A1140062906D0B1F5803F3F
:1013E00003D0016841F00101016000207047000056
:1013F000002C0140004001400700010070B5044688
:1014000090F83C00012817D0012584F83C500220B8
:1014100084F83D00226890682E4B184020F47F40ED
:1014200090600868502830D00DDC20284DD005DCB5
:1014300098B310283BD148E0022070BD302844D03A
:10144000402834D139E0602828D0702806D0B0F583
:10145000805F2CD0B0F5005F29D10AE0CB68D1E9DC
:101460000121206800F0A5FF2068816841F0770124
:1014700009E0CB68D1E90121206800F09AFF2068DB
:10148000816841F48041816011E0CA684968206840
:1014900001F0E0F85021206807E016E0CA684968CA
:1014A000206801F011F96021206800F08CFF84F8B9
:1014B0003D50002084F83C0070BDCA68496820682F
:1014C00001F0C8F840212068EFE722680146104685
:1014D000EBE7000088FFFEFF70472DE9F04105466D
:1014E00090F83C000C46012836D0012085F83C00DD
:1014F0008AB3042A42D02868082A51D0D4E90023AC
:10150000E168066A26F480560662C669076A26F410
:10151000407646EA03234FF6FF7606EA013123F4CC
:10152000704319434FF4204627F4204306EA023261
:101530001A43C16102622868C16921F44061C16136
:101540002868C169A26841EA0221C161002085F8CA
:101550003C00BDE8F08101E00220FAE7D4E9001286
:10156000E368286801F088F82868816921F00C0197
:10157000816128688169A26811430FE0D4E90012F3
:10158000E368286801F0B2F82868816921F44061B5
:10159000816128688169A26841EA02218161D5E7F9
:1015A000D4E90027267B016A21F480710162C169B8
:1015B000036A21F00301394321F0F00731074FF4AA
:1015C000206647EA116123F4206306EA02221A43E7
:1015D000C16102622868C16921F00C01C1612868FB
:1015E000C169A2681143B0E710B5040003D094F8B4
:1015F0003D0010B107E0012010BD002084F83C0040
:10160000204600F022F8022084F83D00211D2068C9
:1016100000F08CFE012084F8480084F83E0084F835
:101620003F0084F8400084F8410084F8420084F8C8
:10163000430084F8440084F8450084F8460084F8A8
:10164000470084F83D00002010BD704710B50446E7
:1016500079B1042912D0082915D00C2918D01029E5
:1016600019D094F8430000BF94F84720012817D1FF
:1016700014E094F83E0094F84420F7E794F83F0013
:1016800094F84520F2E794F8400094F84620EDE7FE
:1016900094F84100E8E794F84200E5E7012A01D018
:1016A000012010BD022071B1042915D008291CD0D9
:1016B0000C293FD0102940D084F8430084F847001B
:1016C0000C291BD13CE084F83E0084F844002068DB
:1016D000C26842F0020210E084F83F0084F845003E
:1016E0002068C26842F0040207E084F8400084F8F1
:1016F00046002068C26842F00802C26001222068E9
:1017000000F04AFE11492068884205D0B0F1804FB0
:1017100002D00F49884207D181680E4A114006293C
:1017200006D0B1F5803F03D0016841F001010160AE
:10173000002010BD84F84100C0E784F84200BDE7F6
:101740002068C26842F01002D7E70000002C014078
:10175000004001400700010030B5044600680D005C
:1017600006D0042D08D0082D2ED00C2D08D12FE046
:10177000C16821F0020102E0C16821F00401C160EA
:1017800000222946206800F007FE2068016A41F225
:101790001112114207D1016A9210114203D101685E
:1017A00021F0010101600120B5B1042D17D0082DF1
:1017B00018D00C2D1AD0102D1BD084F8430000BF78
:1017C00084F84700002030BDC16821F00801D6E749
:1017D000C16821F01001D2E704F83E0F04E004F8DC
:1017E0003F0F01E004F8400FA071EBE784F84100DF
:1017F000E6E784F84200E3E770B504460068016953
:101800004FF00005C943890715D4C168C94389074A
:1018100011D4E91E016101202077206880698007CA
:10182000204602D0FFF758FE04E000F0CDF8204635
:1018300000F08CF9257720680169C943490717D45E
:10184000C168C943490713D46FF004010161022044
:1018500020772068806910F4407F204602D0FFF78F
:101860003BFE04E000F0B0F8204600F06FF9257769
:1018700020680169C943090716D4C168C94309072B
:1018800012D46FF008010161042020772068C0693C
:101890008007204602D0FFF71FFE04E000F094F816
:1018A000204600F053F9257720680169C943C9062D
:1018B00017D4C168C943C90613D46FF01001016180
:1018C000082020772068C06910F4407F204602D0AD
:1018D000FFF702FE04E000F077F8204600F036F94A
:1018E000257720680169C943C90708D1C168C94380
:1018F000C90704D1891E0161204600F091F92068D2
:101900000169C943090609D4C168C943090605D458
:101910006FF0800101612046FFF799FC20680169A2
:10192000C943C90509D4C168C943090605D46FF480
:10193000807101612046FFF789FC20680169C94375
:10194000490609D4C168C943490605D46FF040016E
:101950000161204600F07AF920680169C9438906CF
:101960000BD4C168C943890607D46FF02001016117
:101970002046BDE87040FFF76BBC70BD10B586B067
:10198000044614216846FEF75AFC2068B0F1804FE7
:1019900015D10C48C16C41F00101C164C06C022139
:1019A00000F0010005900120CDE900010021029125
:1019B000CDE9031069464FF09040FEF789FD06B06F
:1019C00010BD000000100240704770B5044690F84A
:1019D0003C000D4601280BD0012084F83C000C2A65
:1019E00045D007DC5AB1042A1BD0082A78D12CE054
:1019F000022070BD102A4ED0142A71D15DE02068FB
:101A000000F0EAFC2068816941F0080181612068EA
:101A1000816921F004018161206881692A6911438B
:101A200011E0206800F014FD2068816941F4006134
:101A300081612068816921F4806181612068816908
:101A40002A6941EA022181614AE0206800F03CFDF8
:101A50002068C16941F00801C1612068C16921F0B5
:101A60000401C1612068C1692A69114311E020683D
:101A700000F064FD2068C16941F40061C161206823
:101A8000C16921F48061C1612068C1692A6941EAA4
:101A90000221C16124E0206800F080FD2068416DD2
:101AA00041F0080141652068416D21F00401416564
:101AB0002068416D2A69114311E0206800F09CFD07
:101AC0002068416D41F4006141652068416D21F459
:101AD000806141652068416D2A6941EA02214165C2
:101AE000002084F83C0070BD10B5040003D094F8C9
:101AF0003D0010B107E0012010BD002084F83C003B
:101B0000204600F022F8022084F83D00211D2068C4
:101B100000F00CFC012084F8480084F83E0084F8B2
:101B20003F0084F8400084F8410084F8420084F8C3
:101B3000430084F8440084F8450084F8460084F8A3
:101B4000470084F83D00002010BD7047704700003A
:101B500010B50446022269B1042912D0082917D011
:101B60000C291CD0102921D094F84300012824D03E
:101B7000012010BD94F83E000128F9D184F83E20E0
:101B80001DE094F83F000128F2D184F83F2016E0D0
:101B900094F840000128EBD184F840200FE094F83D
:101BA00041000128E4D184F8412008E094F8420083
:101BB0000128DDD184F8422001E084F8432001228D
:101BC000206800F0E9FB12492068124A884204D0DC
:101BD000904202D0104B984203D1436C43F400432F
:101BE00043642068884204D0B0F1804F01D0904215
:101BF00007D18168094A1140062906D0B1F5803F16
:101C000003D0016841F001010160002010BD000017
:101C1000002C014000400140004401400700010049
:101C200070470246002041B1042909D008290AD092
:101C30000C2901D11068006C70471068406B704728
:101C40001068806B70471068C06B7047704710B5A4
:101C5000040002D0606F10B107E0012010BD002029
:101C600084F87000204600F025F824206067206882
:101C7000016821F001010160204600F0E3FD012828
:101C8000ECD0606A10B1204600F04BFD206841683E
:101C900021F4904141602068816821F02A0181602F
:101CA0002068016841F0010101602046BDE8104054
:101CB00000F09BBD10B586B0044614216846FEF7BF
:101CC000BEFA13492068884220D11248016E41F4BF
:101CD00080410166016E01F480410591C16C41F0C3
:101CE0000101C164C06C694600F0010005904FF429
:101CF000C060009002200190002002900320039019
:101D0000072004904FF09040FEF7E2FB06B010BDB4
:101D100000380140001002402DE9F84F0446806F62
:101D20009A4616460D4620286BD1EDB1E6B194F8DF
:101D30007000012865D0012084F870004FF0000881
:101D4000C4F87C802220A067FEF798FCA4F85860B5
:101D50008146A4F85A60A0684FF48053FF2198424E
:101D600008D122691AB11CE0012000F04CB840F201
:101D7000FF1116E07F2290B1B0F1805F14D0A4F87B
:101D80005C8000BFB4F85C70984201D1206990B1CA
:101D90002E46002584F8708007F0FF0825E02669AC
:101DA00036B9A4F85C10EDE7216909B13F21F8E7E5
:101DB000A4F85C20E6E70026ECE74B460022202151
:101DC0002046CDF800A000F02FFE08B10320CCE79C
:101DD0002068808C8EB100EA080006F8010B00BF75
:101DE000B4F85A00401EA4F85A00B4F85A0000286B
:101DF000E3D12020A0670020B7E7384025F8020B88
:101E0000EEE70220B1E718BCBDE8E08FFEE7000076
:101E1000F0B587B014216846FEF711FA1A48C16C74
:101E200041F00101C164C16C01F001010591C16C77
:101E300041F00201C164C06C40F6160400F00200DB
:101E40004FF090460590002221463046FEF711FCE7
:101E50000E4F0022E3213846FEF70BFC0125CDE9A9
:101E6000004500240294694630460394FEF730FB97
:101E7000E3200090CDE90154694638460394FEF70B
:101E800027FB07B0F0BD000000100240000400482E
:101E900010B58CB000240A94234807940894099440
:101EA0000594069404940094019402941D490394AB
:101EB00001600321C0E901144FF6FE71C0E903146B
:101EC00044618461FFF7FCF908B172B6FEE74FF494
:101ED0008050079007A91448FFF790FA08B172B62E
:101EE000FEE71148FFF780FB08B172B6FEE70494E5
:101EF000059404A90C480694FFF7ACF908B172B632
:101F0000FEE70120CDE90040029400226946064820
:101F10000394FFF7E2FA002801D072B6FEE70CB096
:101F200010BD0000002C01402C00002010B58EB028
:101F300000240794089409940A940B940C941C218F
:101F400068460D94FEF77BF91D484FF08041016013
:101F500040F21F31C0E901146321C0E90314846118
:101F6000FFF7AEF908B172B6FEE74FF48050079064
:101F700007A91348FFF742FA08B172B6FEE7104806
:101F8000FFF7B2FD08B172B6FEE70B940BA90C483F
:101F90000D94FFF75FF908B172B6FEE76020CDE956
:101FA000000402940022694605480494FFF70DFDE1
:101FB00008B172B6FEE70248FFF7E0FC0EB010BDB4
:101FC000780000200C4810B50A4901604FF4165102
:101FD0004160002181600C22C160C0E9041281616E
:101FE000C16101624162FFF732FE002801D072B682
:101FF000FEE710BD00380140C4000020FEE7FEE708
:10200000704700002DE9F041444C05468846E068E1
:102010000026810728680DD0E16801F003018142A4
:1020200016D1A8B1E0686968C0F30210401C88426C
:102030000ED120E0012804D0022805D0032807D1C2
:1020400008E02168890701E021684905002907DBCC
:1020500001265FE02168890302D421684903F5E77E
:10206000E1686A686FF00F0321F0730103EB02125D
:1020700011430143E160206820F080602060FEF79A
:10208000FDFA074605E000BFFEF7F8FAC01B02287C
:1020900037D820680001F7D4B8F1000F18D0B8F194
:1020A000010F1DD0287D4FF07E41400801EB4060BC
:1020B000A96840EA01202169194A114008432061BA
:1020C000206840F080602060FEF7D8FA07461AE0EA
:1020D000A868297B000240EAC1602169114AECE747
:1020E000288A1149400801EB4050A96840EA0120C4
:1020F00021690E4AE1E700BFFEF7C0FAC01B0228C3
:1021000001D9032606E020680001F5D52069A969F8
:10211000084320613046BDE8F08100000010024015
:10212000FF80FFF9FF80FF070000E0FFFF809FFFB7
:10213000F8B51C4D06460024A86DC00002D5FEF778
:1021400067FB0DE0A86D40F08050A865A86D00F019
:1021500080500090FEF75CFBA96D21F08051A965CD
:10216000B0F5007F04D0802E07D94FF003040AE0B9
:10217000802E08D9A02E01D804E001D1022402E06B
:10218000702E00D101240848016821F00701214385
:102190000160006800F00700A04201D00120F8BDF6
:1021A0000020F8BD00100240002002407047FEF7FA
:1021B0006BBA30B5ABB0442115A8FEF740F8142136
:1021C00026A8FEF73CF854216846FEF738F81020A0
:1021D000159000246020CDE91C4001251B9515A811
:1021E0001F94FEF769FD08B172B6FEE70F20CDE936
:1021F000260428942994002126A82A94FEF756FC48
:1022000008B172B6FEE7684600950894FEF708FB31
:1022100008B172B6FEE74FF40070FEF7C5FA002869
:1022200001D072B6FEE72BB030BD00000D4801684A
:1022300041F4700101600C48016841F00101016046
:10224000002181600268094B1A4002608214C2605A
:10225000026822F48022026081610249C003803951
:102260000860704788ED00E000100240FFFFF6EACA
:1022700070B5284C284D2078012801D090B143E05A
:1022800000212548FFF7CDFC606000202070286801
:10229000016A21F00A0101622868016A41F0020125
:1022A000016231E000211C48FFF7BBFCA0602968F7
:1022B0000A6A22F00A020A6229680A6A0A6201218D
:1022C00021706168884201D9401A07E0814201D833
:1022D000E06804E04FF6FF72511A0844E060FEF730
:1022E0002EF89FED0E1B53EC112BFDF7B3FF9FED66
:1022F0000D1B53EC112BFDF7ADFFFEF72DF86070B1
:1023000002210548FFF728FABDE870400248FFF7B0
:1023100073BA00000C0000202C0000209CC420B0E8
:102320007268A13F000000000000E03F70B5026845
:10233000164B4FF08046984201D0B04203D122F0B4
:1023400070044A682243124C124D984205D0B042A4
:1023500003D0A04201D0A84203D122F44076CA683B
:1023600032434E6922F08002324302608A68C262C0
:102370000A688262984203D0A04201D0A84201D1EB
:10238000096901630121416170BD0000002C014019
:10239000004001400044014010B501F01F0301213D
:1023A000046A99408C430462016A9A4011430162B5
:1023B00010BD10B5846842EA032224F47F440A4326
:1023C0002243826010BD826822F070020A4342F00C
:1023D0000701816070470000F0B5026A22F0010237
:1023E0000262056A43688269154C25F002052240A5
:1023F0000C6822F0030214438A68134E2A43114DDD
:10240000124FA84203D0B04201D0B84206D122F008
:10241000080CCA6842EA0C0222F00402A84203D067
:10242000B04201D0B84205D14D6923F440731D4339
:102430008B692B4343608461496841630262F0BD4C
:102440008FFFFEFF002C014000400140004401408E
:1024500030B5026A22F010020262046A426883699F
:10246000154D2B400D6823F4407343EA052524F0F5
:1024700020038C6843EA0413104CA04207D1CC68B7
:1024800023F0800343EA041323F0400305E00C4CDF
:10249000A04202D00B4CA04207D14C6922F440620A
:1024A00042EA84028C6942EA84024260856149689A
:1024B0008163036230BD0000FF8FFFFE002C0140EE
:1024C000004001400044014030B5026A22F48072AD
:1024D0000262046A4268C369144D2B400D6823F000
:1024E00003031D4324F400738C6843EA0423104C57
:1024F000A04207D1CC6823F4006343EA042323F409
:10250000806305E00B4CA04202D00B4CA04207D1E7
:102510004C6922F4405242EA04128C6942EA0412E5
:102520004260C5614968C163036230BD8FFFFEFF31
:10253000002C0140004001400044014030B5026AD7
:1025400022F480520262046A4268C3690F4D24F487
:1025500000542B400D6823F4407343EA05238D6833
:1025600044EA05340A4DA84205D00A4DA84202D0DB
:10257000094DA84204D14D6922F4804242EA8512F5
:102580004260C36149680164046230BDFF8FFFFE91
:10259000002C0140004001400044014030B5026A77
:1025A00022F480320262046A4268436D0E4D2B4071
:1025B0000D681D4324F400330C8943EA04430B4C9B
:1025C000A04205D00A4CA04202D00A4CA04204D13D
:1025D0004C6922F4803242EA04224260456549682F
:1025E0008165036230BD00008FFFFEFF002C0140BB
:1025F000004001400044014030B5026A22F48012DC
:102600000262046A4268436D0E4D24F400142B40AC
:102610000D6843EA05230D8944EA05540A4DA84292
:1026200005D00A4DA84202D0094DA84204D14D69F7
:1026300022F4802242EA8522426043654968C165EE
:10264000046230BDFF8FFFFE002C014000400140BE
:102650000044014010B5036A046A24F001040462D6
:10266000846924F0F00444EA021423F00A020A43C5
:102670008461026210BD000070B5046A24F0010498
:1026800004628469056A0E4EB04205D0B0F1804FF5
:1026900002D00C4EB04203D124F00304144301E0F5
:1026A00044F001041A0724F0F00444EA126225F011
:1026B0000A0301F00A0119438261016270BD000042
:1026C000002C01400040014010B5036A23F01003C4
:1026D00003628369046A23F4704343EA023224F0FC
:1026E000A00343EA01118261016210BD30B5046AA2
:1026F00024F0100404628469056A24F4407444EAF6
:10270000022222F470444FF6FF7202EA033222439F
:10271000A02425F0A00304EA01111943826101629B
:1027200030BD90F82410C90706D001684A68836A52
:1027300022F400321A434A6090F82410890706D523
:1027400001684A68C36A22F480321A434A6090F8EA
:102750002410490706D501684A68036B22F48022D9
:102760001A434A6090F82410090706D501684A68A0
:10277000436B22F400421A434A6090F82410C906C1
:1027800006D501688A68836B22F480521A438A60F6
:1027900090F82410890606D501688A68C36B22F474
:1027A00000521A438A6090F82410490611D5016836
:1027B0004A68036C22F480121A434A60016CB1F536
:1027C000801F06D101684A68436C22F4C0021A4394
:1027D0004A6090F82410090606D501684A68806CA2
:1027E00022F4002202434A607047F8B500260446EE
:1027F000C667FDF743FF0546206800686FF07E4717
:10280000000708D52B4600224FF400112046009700
:1028100000F00AF960B92068006840070AD52B4625
:1028200000224FF480012046009700F0FDF808B127
:102830000320F8BD20206067A06784F87060002046
:10284000F8BD00002DE9F041044601688068226966
:10285000E3691043626900251A4310436B4F0A680D
:102860006B4B1A4002430A6020684168E26821F419
:102870004051114341602168A069B94201D0226AE8
:1028800010438A6822F4306202438A6061492368F7
:1028900061488B420DD1D0F8880010F0030006D0BB
:1028A000012838D0022834D0032821D135E0012175
:1028B0001FE05A498B420BD1D0F8880010F00C0071
:1028C00025D0042827D0082823D00C2810D124E0B4
:1028D000BB420DD1D0F8880010F4406017D0B0F59D
:1028E000806F18D0B0F5006F13D0B0F5406F14D0E2
:1028F00010214B4800264FF40042BB422FD171B14A
:10290000022912D004290DD0082973D125E0002115
:10291000EFE70221EDE70421EBE70821E9E7FEF705
:1029200055F901E0FEF776F9F0B3626802EB420177
:1029300081425FD8B0EB023F5CD8010E0002730801
:102940004FEA3207C01959410023FDF73DFC354AD3
:10295000A0F54071914251D94CE01046E5E7E3699A
:102960004FF6EF77934229D1092943D2DFE801F0EE
:1029700005080E420B4242422400FEF727F904E00C
:10298000FEF736F901E0FEF745F968B141006068ED
:1029900001EB5001B1FBF0F080B2A0F11001B9429F
:1029A00028D84FF6F07100E02AE00140C0F3420061
:1029B00001432068C16023E01046E7E7092919D2E6
:1029C000DFE801F005080E180B1818181A00FEF7BA
:1029D000FDF804E0FEF70CF901E0FEF71BF978B111
:1029E000616800EB5100B0FBF1F080B2A0F1100182
:1029F000B94203D9012503E01046F1E72168C86018
:102A0000266628466666BDE8F0810000008000402A
:102A1000F369FFEF0038014000100240004400401D
:102A20000024F400FFFC0F002DE9F0479A461746FA
:102A30000E4604464FF000094FF02008089D39E08B
:102A4000681C37D0FDF71AFEA0EB0A00A84222D876
:102A50000DB32068016849072CD5C069C043000543
:102A600028D421684FF4006008622068016821F4CE
:102A7000D07101602068816821F001018160C4F893
:102A80007480C4F87880C4F87C8000BF84F87090AB
:102A90000320BDE8F0872068016821F4D07101604F
:102AA0002068816821F001018160C4F87480C4F855
:102AB0007880EBE72068C06936EA000004D0002087
:102AC000B842BDD00020E4E70120F9E7FEE709079E
:102AD000090E002804DB00F1E02080F800147047A4
:102AE00000F00F0000F1E02080F8141D704702E0B4
:102AF00008C8121F08C1002AFAD170477047002089
:102B000001E001C1121F002AFBD170470649074AA4
:102B1000096820B1062048630120507070470B20DF
:102B200048630020F9E70000780000200000002042
:102B300010B50022835C8C5CA34201D0662010BDDE
:102B4000521C042AF6DB742010BD00000449002248
:102B50000B685A6209684A6A8242FCD370470000D7
:102B60002C0000204001401EFDD270472DE9F041AD
:102B70000021084600F0B6F82FA000F00FF901215F
:102B8000002000F0AFF830A000F008F90124334E27
:102B90004FF090456427012202212846FDF769FD88
:102BA0000A20FFF7D3FF002202212846FDF761FD2E
:102BB00000212B48FEF74AFDC820FDF777FC30784E
:102BC000642832D30121002000F08CF894FBF7F048
:102BD00007FB10400A2818D094FBF7F007FB1040C1
:102BE000142814D094FBF7F007FB10401E2810D0D7
:102BF00094FBF7F007FB104028280CD094FBF7F06B
:102C000007FB1040322808D00AE016A006E01AA000
:102C100004E01EA002E022A000E026A000F0BEF822
:102C2000322C04D0641C322CB5DDBDE8F081BDE847
:102C3000F0410120FFF76ABF444F4F5220434C4FF1
:102C4000534520494E3A000052656D61696E696EC8
:102C5000672069733A203130000000000D00002029
:102C60002C00002052656D61696E696E6720697382
:102C70003A2030380000000052656D61696E696E5F
:102C8000672069733A2030360000000052656D619C
:102C9000696E696E672069733A2030340000000065
:102CA00052656D61696E696E672069733A203032D2
:102CB0000000000052656D61696E696E672069737E
:102CC0003A2030300000000010B50121002000F053
:102CD00071F8BDE810400220FDF7E8BB0146012075
:102CE00000F068B800EB81108030C1B2002000F025
:102CF00061B810B53321002000F05CF832210020CB
:102D000000F058F82821002000F054F80C21002091
:102D100000F050F80621002000F04CF801210020BE
:102D200000F048F8BDE810400220FDF7BFBB0000EE
:102D300010B500210846FFF7D5FFBDE8104001A0FF
:102D400000F02CB8596F75722050696E3A2000005F
:102D500010B54FF4FA70FDF7A9FBFFF7B5FF00219E
:102D60000846FFF7BFFF06A000F018F80121002079
:102D7000FFF7B8FFBDE8104005A000F00FB8000055
:102D800031202D20456E7465722050696E00000060
:102D900032202D204E65772050696E0010B5044614
:102DA00003E000BFFFF79AFF641C20780028F9D1E8
:102DB00010BD000070B50C464FF400614FF0904517
:102DC00008B1012200E000222846FDF752FC002253
:102DD00020211348FDF74DFC204600F023F8012286
:102DE00004212846FDF745FC6420FFF7BBFE0022C6
:102DF00004212846FDF73DFC2007000E00F012F8E4
:102E0000012204212846FDF734FC6420FFF7AAFEC6
:102E10002846BDE8704000220421FDF72ABC0000CE
:102E20000004004870B50446134DC00601D50122C8
:102E300000E0002202212846FDF71BFCA00601D578
:102E4000012200E0002240212846FDF712FC600626
:102E500001D5012200E0002280212846FDF709FC6F
:102E6000200601D5012200E000222846BDE870407E
:102E70000121FDF7FEBB000000040048FDF70CFC3B
:102E8000FFF797F9FEF7C4FFFFF702F8FFF79AF88C
:102E9000FFF74CF8FFF72DFF00215948FEF758FEC9
:102EA00057484C38FEF782FA002202214FF090403A
:102EB000FDF7DFFB0A20FDF7F9FA524FB7F10706DD
:102EC000FFF746FF4FEA060500F0CAF8A870312860
:102ED00001D03228F8D1FFF7F7FEA87831282FD09B
:102EE0003228EDD100210846FFF7FCFE46A0FFF78F
:102EF00055FF002400F0B4F83855E0B20121FFF787
:102F0000F1FE44A0FFF74AFF641C042CF2DB3D49AC
:102F1000081FFFF70DFE742844D0FFF7D5FE0021EF
:102F20005FF00400FFF7DEFE3BA0FFF737FF2878D5
:102F3000401CC0B228700328C2D100F0A7F8BFE738
:102F4000FFF7F6FE5FF0000400F08AF83855E0B2B3
:102F50000121FFF7C7FE2FA0FFF720FF641C042C00
:102F6000F2DB2849081FFFF7E3FD742804D0FFF7C0
:102F7000ABFE00210846D5E7FFF7A6FE0021084674
:102F8000FFF7B0FE27A0FFF709FF0020FFF7BEFD07
:102F900002E000BFFFF7EAFD68780028FAD00020C1
:102FA00028708DE7FFF790FE00210846FFF79AFE94
:102FB00020A0FFF7F3FE01210020FFF793FE20A0E1
:102FC000FFF7ECFE4FF47A60FDF770FAFFF77CFE36
:102FD00000210846FFF786FE1DA0FFF7DFFE094D22
:102FE00000242D1F00F03CF82855E0B20121FFF726
:102FF00079FE08A0FFF7D2FE641C042CF2DB5FE729
:103000007800002007000020456E7465722050494A
:103010004E3A00002A00000057726F6E6720506918
:103020006E210000444F4F52204953204F50454ECF
:103030000000000050494E2043414E204245000010
:10304000342D4E554D42455253204F4E4C590000A1
:10305000456E746572204E65772050696E3A0000A7
:1030600038B520208DF800004FF0FF3423460122B0
:1030700069460548FEF750FE9DF8000030380A28E2
:10308000F4D29DF8000038BDC400002070B54FF0A8
:103090009046012210213046FDF7EBFAFFF714FEAF
:1030A00000210846FFF71EFE22A0FFF777FE012150
:1030B0000020FFF717FE22A0FFF770FE4FF47A60A2
:1030C000FDF7F4F9224D00BFFFF7FEFD0021084691
:1030D000FFF708FE1FA0FFF761FE0024FFF7C0FF07
:1030E0002855E0B20121FFF7FDFD1DA0FFF756FEB8
:1030F000641C042CF2DB1649081FFFF719FD742825
:1031000011D1FFF7E1FD00210846FFF7EBFD15A007
:10311000FFF744FE0E490020C91F02460870102127
:103120003046FDF7A6FA0A49081FFFF701FD662899
:10313000CAD070BD454E5445522050494E00000043
:10314000544F2044495341424C452042555A5A005D
:1031500007000020456E7465722050696E3A0000C9
:103160002A000000414C41524D2044495341424CF9
:1031700045440000000000000000000001020304BC
:1031800006070809A0860100400D0300801A06000A
:1031900000350C0040420F0080841E0000093D00F5
:1031A00000127A000024F40000366E010048E801A5
:1031B000006CDC020000000001020304DC310008A6
:1031C000000000202C000000EE2A00080832000851
:1031D0002C0000201C050000FE2A00080001003120
:1031E000313131000000000000000000000000004C
:1031F00000000000000000000100000010000000BE
:083200000000000000093D0080
:040000050800018D61
:00000001FF
